S00B00004943552E7372656338
S11300000C942A000C9447000C9447000C946E0244
S11300100C94D8020C94A9020C9447000C94470049
S11300200C9447000C9447000C9447000C94470030
S11300300C9447000C9447000C9447000C94470020
S11300400C9447000C9447000C9447000C94470010
S11300500C94470011241FBECFE5D8E0DEBFCDBF0E
S113006010E0A0E6B0E0EEEFF7E002C005900D92DC
S1130070A236B107D9F720E0A2E6B0E001C01D9294
S1130080A536B207E1F70E9496010C94FD030C9487
S11300900000882319F0813089F008954FEF60E162
S11300A083E00E94C6004FEF64E083E00E94C60034
S11300B04FEF68E083E00E94C60008954FEF60E2CE
S11300C083E00E94C6004FEF60E483E00E94C60014
S11300D04FEF60E883E00E94C6000895882319F07A
S11300E0813041F10895613021F0C8F0623061F04F
S11300F008954FEF64E083E00E94FE0040E068E072
S113010083E00E94FE00089540E064E083E00E94E2
S1130110FE004FEF68E083E00E94FE00089540E097
S113012064E083E00E94FE0040E068E083E00E9417
S1130130FE000895613021F0C8F0623061F0089546
S11301404FEF60E483E00E94FE0040E060E883E05B
S11301500E94FE00089540E060E483E00E94FE00F7
S11301604FEF60E883E00E94FE00089540E060E401
S113017083E00E94FE0040E060E883E00E94FE000D
S1130180089564E682E30E946C0308954F3FC1F42E
S1130190813051F028F0823059F0833069F00895AD
S11301A08AB3682B6ABB089587B3682B67BB08952D
S11301B084B3682B64BB089581B3682B61BB089535
S11301C041111BC0813059F028F0823069F083302E
S11301D081F008958AB3609568236ABB089587B354
S11301E06095682367BB089584B36095682364BBF6
S11301F0089581B36095682361BB08954F3FC1F4AE
S1130200813051F028F0823059F0833069F008953C
S11302108BB3682B6BBB089588B3682B68BB0895B8
S113022085B3682B65BB089582B3682B62BB0895C0
S113023041111BC0813059F028F0823069F08330BD
S113024081F008958BB3609568236BBB089588B3E0
S11302506095682368BB089585B36095682365BB82
S1130260089582B36095682362BB0895813061F07C
S113027028F0823079F0833099F008954FEF60E1EF
S113028081E00E94C60008954FEF60E281E00E9481
S1130290C60008954FEF60E481E00E94C60008950F
S11302A04FEF60E881E00E94C6000895813061F05C
S11302B028F0823079F0833099F008954FEF60E1AF
S11302C081E00E94FE0008954FEF60E281E00E9409
S11302D0FE0008954FEF60E481E00E94FE0008955F
S11302E04FEF60E881E00E94FE000895813061F0E4
S11302F028F0823079F0833099F0089540E060E18D
S113030081E00E94FE00089540E060E281E00E94E6
S1130310FE00089540E060E481E00E94FE0008953C
S113032040E060E881E00E94FE000895CF93DF93EF
S11303301F92CDB7DEB780E00E94490081E00E94A1
S1130340490061E080E00E946E0061E081E00E946B
S11303506E0082E30E94C100198280E00E9436018F
S113036081E00E94360182E00E94360183E00E940F
S113037036014FEF68E080E00E94C60081E00E94F1
S11303804E02E12C00E020E044E060E080E00E94C6
S113039004030AE310E04FEF68E080E00E94FE00EF
S11303A089EF90E00197F1F700C0000040E068E0B9
S11303B080E00E94FE00809160008330E1F7CE016E
S11303C001960E942702898190E0880F991F880F67
S11303D0991F880F991FB8010E94D5036630A8F4AD
S11303E060E080E00E946E0060E081E00E946E00A8
S11303F080E00E94360180E00E94560181E00E9464
S1130400360181E00E94760114C061E080E00E9420
S11304106E0061E081E00E946E0081E00E9436017E
S113042081E00E94560180E00E94360180E00E9433
S1130430760112BE81E0809360009FE32DE083E0AB
S1130440915020408040E1F700C00000A4CFCF933A
S1130450DF93EC010E9430038883DF91CF910895EC
S11304608BB780628BBF08958BB78F7D8BBF089548
S1130470CF93C82F0E943402CC2331F0C13039F419
S113048084B7806484BF03C084B78F7B84BF8AB77A
S11304908F7D8ABF0E943002CF910895EF920F930F
S11304A0CF93C82F8FB780688FBF8AB78F7D8ABFDD
S11304B040E064E081E00E94C600E12C00E020E01E
S11304C043E060E080E00E9404038C2F0E94380225
S11304D00E943002CF910F91EF9008951F920F92D6
S11304E00FB60F9211242F933F934F935F936F9303
S11304F07F938F939F93AF93BF93EF93FF938091D9
S11305006000813049F40E94380380E00E94380280
S113051082E0809360000CC080916000823041F4DE
S11305200E94320381E00E94380283E080936000DD
S1130530FF91EF91BF91AF919F918F917F916F91B7
S11305405F914F913F912F910F900FBE0F901F908D
S113055018951F920F920FB60F9211242F933F9369
S11305604F935F936F937F938F939F93AF93BF93B7
S1130570EF93FF934FEF60E183E00E94FE004FEFA3
S113058060E283E00E94FE008091620082BFFF91DE
S1130590EF91BF91AF919F918F917F916F915F91F7
S11305A04F913F912F910F900FBE0F901F90189570
S11305B01F920F920FB60F9211242F933F934F93D4
S11305C05F936F937F938F939F93AF93BF93EF93B7
S11305D0FF9340E060E183E00E94FE0040E060E2BF
S11305E083E00E94FE00FF91EF91BF91AF919F9134
S11305F08F917F916F915F914F913F912F910F90C8
S11306000FBE0F901F901895EF92FF920F931F93B8
S1130610CF93DF93D82FC62F142FF22E80E00E94A1
S1130620360112BE13BE1CBE83B7D82BD3BF83B70B
S1130630C82BC3BFEE2019F08FB780688FBF89B76E
S11306408C7F89BF89B7E82AE9BEF2BE0CBF10933C
S11306506400DF91CF911F910F91FF90EF90089567
S113066082B7089593B780916400892B83BF08955E
S113067083B7887F83BF0895CF92EF92FF920F9341
S11306801F93CF93DF93D82FC62F142FF22E80E021
S11306900E94360114BC15BC13BCE2BC85B5D82B32
S11306A0D5BD85B5C82BC5BD89B78F7389BF89B73B
S11306B0C82AC9BEF4BC03BD10936300DF91CF9177
S11306C01F910F91FF90EF90CF90089595B5809171
S11306D06300892B85BD0895CF92EF920F93CF933A
S11306E0DF93C82FD62F843639F0882349F00F2E94
S11306F0F0ECCF2EF02D07C06894CC24C6F803C0CC
S11307006894CC24C3F88FB780688FBF4FEF64E040
S113071083E00E94C600D43619F1D83C09F03FC0EA
S113072082EB8093620080916200009162002091CC
S1130730620040E051E0481B5109C49FC001C59FBD
S1130740900D112464E670E00E94D503060FE12C9D
S113075047E060E080E00E943C030E9466031FC003
S113076084E680936200809162000091620020918F
S1130770620040E051E0481B5109C49FC001C59F7D
S1130780900D112464E670E00E94D503060FE12C5D
S113079047E060E080E00E943C030E946603DF9132
S11307A0CF910F91EF90CF90089597FB072E16F4F9
S11307B0009407D077FD09D00E94E90307FC05D017
S11307C03EF4909581959F4F0895709561957F4F64
S11307D00895AA1BBB1B51E107C0AA1FBB1FA61784
S11307E0B70710F0A61BB70B881F991F5A95A9F7D6
S11107F080959095BC01CD010895F894FFCF3B
S10507FE0100F4
S9030000FC
