S01700005765656B325F6368616C6C656E67652E737265634D
S11300000C942A000C943C000C943C000C943C008E
S11300100C9451010C9427010C943C000C943C006A
S11300200C943C000C943C000C9400010C94D600FD
S11300300C943C000C943C000C943C000C943C004C
S11300400C943C000C943C000C943C000C943C003C
S11300500C943C0011241FBECFE5D8E0DEBFCDBF19
S113006020E0A0E6B0E001C01D92A236B207E1F79D
S11300700E94CE000C9430020C9400004F3FC1F457
S1130080813051F028F0823059F0833069F00895BE
S11300908AB3682B6ABB089587B3682B67BB08953E
S11300A084B3682B64BB089581B3682B61BB089546
S11300B041111BC0813059F028F0823069F083303F
S11300C081F008958AB3609568236ABB089587B365
S11300D06095682367BB089584B36095682364BB07
S11300E0089581B36095682361BB08954F3FC1F4BF
S11300F0813051F028F0823059F0833069F008954E
S11301008BB3682B6BBB089588B3682B68BB0895C9
S113011085B3682B65BB089582B3682B62BB0895D1
S113012041111BC0813059F028F0823069F08330CE
S113013081F008958BB3609568236BBB089588B3F1
S11301406095682368BB089585B36095682365BB93
S1130150089582B36095682362BB0895813061F08D
S113016028F0823079F0833099F008954FEF60E100
S113017081E00E943E0008954FEF60E281E00E941A
S11301803E0008954FEF60E481E00E943E00089530
S11301904FEF60E881E00E943E00089580E00E94F5
S11301A0AE0062E080E00E94A501FFCF1F920F9293
S11301B00FB60F9211242F933F934F935F936F9336
S11301C07F938F939F93AF93BF93EF93FF934FEFDF
S11301D061E083E00E9476008091600082BFFF911D
S11301E0EF91BF91AF919F918F917F916F915F91AB
S11301F04F913F912F910F900FBE0F901F90189524
S11302001F920F920FB60F9211242F933F934F9387
S11302105F936F937F938F939F93AF93BF93EF936A
S1130220FF9340E061E083E00E947600FF91EF914C
S1130230BF91AF919F918F917F916F915F914F91FA
S11302403F912F910F900FBE0F901F9018951F9202
S11302500F920FB60F9211242F933F934F935F93F6
S11302606F937F938F939F93AF93BF93EF93FF937A
S11302704FEF61E083E00E9476008091600082BFCE
S1130280FF91EF91BF91AF919F918F917F916F916A
S11302905F914F913F912F910F900FBE0F901F9040
S11302A018951F920F920FB60F9211242F933F931C
S11302B04F935F936F937F938F939F93AF93BF936A
S11302C0EF93FF9340E061E083E00E947600FF91AA
S11302D0EF91BF91AF919F918F917F916F915F91BA
S11302E04F913F912F910F900FBE0F901F90189533
S11302F0EF92FF920F931F93CF93DF93D82FC62FC4
S1130300142FF22E80E00E94AE0012BE13BE1CBE5B
S113031083B7D82BD3BF83B7C82BC3BF89B78C7F10
S113032089BF89B7E82AE9BEF2BE0CBF1093610009
S1130330DF91CF911F910F91FF90EF90089593B7A4
S113034080916100892B83BF0895EF920F93CF931F
S1130350DF93C82FD62F843639F0882341F00F2E2F
S1130360F3E0EF2EF02D06C0EE24E39403C068946E
S1130370EE24E3F88FB780688FBF4FEF61E083E02E
S11303800E943E00D43609F1D83CE9F582EB809313
S1130390600080916000009160002091600040E066
S11303A051E0481B5109C49FC001C59F900D112401
S11303B064E670E00E940802060F45E060E080E019
S11303C00E9478010E949F011EC084E68093600011
S11303D080916000009160002091600040E051E055
S11303E0481B5109C49FC001C59F900D112464E6A8
S11303F070E00E940802060F45E060E080E00E9481
S113040078010E949F01DF91CF910F91EF900895A1
S113041097FB072E16F4009407D077FD09D00E94AD
S11304201C0207FC05D03EF4909581959F4F0895DA
S1130430709561957F4F0895AA1BBB1B51E107C0BE
S1130440AA1FBB1FA617B70710F0A61BB70B881F60
S1130450991F5A95A9F780959095BC01CD010895EF
S1070460F894FFCF3A
S9030000FC
