:100000000C942A000C943C000C943C000C943C0092
:100010000C943C000C94B0010C943C000C943C00FB
:100020000C943C000C943C000C943C000C9421017A
:100030000C943C000C943C000C943C000C943C0050
:100040000C943C000C943C000C943C000C943C0040
:100050000C943C0011241FBECFE5D8E0DEBFCDBF1D
:1000600020E0A0E6B0E001C01D92A338B207E1F79E
:100070000E94CA000C944B040C9400004F3FC1F442
:10008000813051F028F0823059F0833069F00895C2
:100090008AB3682B6ABB089587B3682B67BB089542
:1000A00084B3682B64BB089581B3682B61BB08954A
:1000B00041111BC0813059F028F0823069F0833043
:1000C00081F008958AB3609568236ABB089587B369
:1000D0006095682367BB089584B36095682364BB0B
:1000E000089581B36095682361BB0895813051F014
:1000F00028F0823059F0833069F008958BB3682777
:100100006BBB089588B3682768BB089585B36827DB
:1001100065BB089582B3682762BB0895813061F0A2
:1001200028F0823079F0833099F008954FEF60E144
:1001300081E00E943E0008954FEF60E281E00E945E
:100140003E0008954FEF60E481E00E943E00089574
:100150004FEF60E881E00E943E000895813059F041
:1001600028F0823069F0833081F0089560E181E009
:100170000E947600089560E281E00E947600089572
:1001800060E481E00E947600089560E881E00E94CA
:10019000760008958FB780688FBF80E00E948E0040
:1001A000EE24E39400E020E043E060E080E00E9481
:1001B0003F0260E472E48FE090E00E947A02809156
:1001C00072008823B1F380E00E94AE0010927200AA
:1001D000F0CF80917000833091F028F4813049F0A5
:1001E000823051F015C0853081F060F0873029F100
:1001F0000FC061E070E00EC068E070E00BC060E42A
:1002000070E008C060E071E005C060E074E002C02A
:1002100060E070E080E090E00E943B039B01AC0155
:100220006FEF73E284E79BE40E94930220E030E0EA
:1002300040E85BE30E94C903089560E070E0CB01F1
:1002400008951F920F920FB60F921124AF92BF9292
:10025000CF92DF92EF92FF920F931F932F933F93D2
:100260004F935F936F937F938F939F93AF93BF93BE
:10027000EF93FF9320917B0030917C0040917D00B3
:1002800050917E0060917F0070918000809181008C
:1002900090918200A1E00E94360420937B0030936D
:1002A0007C0040937D0050937E0060937F007093AC
:1002B00080008093810090938200A0907B00B0909A
:1002C0007C00C0907D00D0907E00E0907F00F09098
:1002D0008000009181001091820060916C0070910B
:1002E0006D0080916E0090916F000E940503372F82
:1002F000262F972F990F990B492F592F692F792F57
:10030000892F0E94420499F410927B0010927C0085
:1003100010927D0010927E0010927F00109280005B
:10032000109281001092820081E080937200FF9110
:10033000EF91BF91AF919F918F917F916F915F915D
:100340004F913F912F911F910F91FF90EF90DF9070
:10035000CF90BF90AF900F900FBE0F901F90189549
:100360001F920F920FB60F921124AF92BF92CF92AD
:10037000DF92EF92FF920F931F932F933F934F9330
:100380005F936F937F938F939F93AF93BF93EF93FD
:10039000FF9320917300309174004091750050914B
:1003A000760060917700709178008091790090914B
:1003B0007A00A1E00E943604209373003093740009
:1003C00040937500509376006093770070937800A7
:1003D0008093790090937A00A0907300B09074009D
:1003E000C0907500D0907600E0907700F090780093
:1003F0000091790010917A00609168007091690015
:1004000080916A0090916B000E940503372F262F80
:10041000972F990F990B492F592F692F792F892FD2
:100420000E94420499F4109273001092740010928A
:10043000750010927600109277001092780010925A
:10044000790010927A0081E080937100FF91EF9122
:10045000BF91AF919F918F917F916F915F914F91DC
:100460003F912F911F910F91FF90EF90DF90CF90D0
:10047000BF90AF900F900FBE0F901F901895EF9206
:100480000F9312BE13BE1CBE93B7892B83BF83B7D5
:10049000682B63BF89B7E82AE9BE22BF0CBF40932F
:1004A00070000E94E90020E034E244E759E40E9431
:1004B000930260936400709365008093660090934C
:1004C00067000E94E90020E030E04AE754E40E941F
:1004D0009302609360007093610080936200909338
:1004E00063000F91EF90089593B780917000892B6E
:1004F00083BF08950E943B039B01AC01609164009F
:100500007091650080916600909167000E94C90318
:1005100060936C0070936D0080936E0090936F00F9
:100520000E94740208950E94A7020C948F030E94F7
:10053000880358F00E94810340F029F45F3F29F0BE
:100540000C94780351110C94C3030C947E030E9405
:10055000A00368F39923B1F3552391F3951B550B31
:10056000BB27AA2762177307840738F09F5F5F4F86
:10057000220F331F441FAA1FA9F335D00E2E3AF0C5
:10058000E0E832D091505040E695001CCAF72BD0DD
:10059000FE2F29D0660F771F881FBB1F261737072E
:1005A0004807AB07B0E809F0BB0B802DBF01FF2760
:1005B00093585F4F3AF09E3F510578F00C947803C2
:1005C0000C94C3035F3FE4F3983ED4F3869577958C
:1005D0006795B795F7959F5FC9F7880F911D969519
:1005E000879597F90895E1E0660F771F881FBB1F75
:1005F000621773078407BA0720F0621B730B840B22
:10060000BA0BEE1F88F7E09508950E940C036894DA
:10061000B1110C94C30308950E94A80388F09F575A
:1006200098F0B92F9927B751B0F0E1F0660F771F16
:10063000881F991F1AF0BA95C9F714C0B13091F00C
:100640000E94C203B1E008950C94C203672F782F73
:100650008827B85F39F0B93FCCF3869577956795D1
:10066000B395D9F73EF490958095709561957F4F3D
:100670008F4F9F4F0895E89409C097FB3EF49095E3
:100680008095709561957F4F8F4F9F4F9923A9F06B
:10069000F92F96E9BB279395F695879577956795FA
:1006A000B795F111F8CFFAF4BB0F11F460FF1BC03E
:1006B0006F5F7F4F8F4F9F4F16C0882311F096E9D1
:1006C00011C0772321F09EE8872F762F05C066237F
:1006D00071F096E8862F70E060E02AF09A95660F38
:1006E000771F881FDAF7880F9695879597F90895F1
:1006F00097F99F6780E870E060E008959FEF80ECD5
:10070000089500240A941616170618060906089577
:1007100000240A9412161306140605060895092EDD
:100720000394000C11F4882352F0BB0F40F4BF2B4C
:1007300011F460FF04C06F5F7F4F8F4F9F4F08958C
:1007400057FD9058440F551F59F05F3F71F0479582
:10075000880F97FB991F61F09F3F79F08795089567
:10076000121613061406551FF2CF4695F1DF08C086
:10077000161617061806991FF1CF869571056105A3
:1007800008940895E894BB2766277727CB0197F94B
:1007900008950E94DC030C948F030E94810338F0BB
:1007A0000E94880320F0952311F00C9478030C9498
:1007B0007E0311240C94C3030E94A00370F3959F41
:1007C000C1F3950F50E0551F629FF001729FBB2748
:1007D000F00DB11D639FAA27F00DB11DAA1F649FE4
:1007E0006627B00DA11D661F829F2227B00DA11D97
:1007F000621F739FB00DA11D621F839FA00D611D1D
:10080000221F749F3327A00D611D231F849F600D3D
:10081000211D822F762F6A2F11249F5750409AF066
:10082000F1F088234AF0EE0FFF1FBB1F661F771FF2
:10083000881F91505040A9F79E3F510580F00C94BD
:1008400078030C94C3035F3FE4F3983ED4F386959A
:1008500077956795B795F795E7959F5FC1F7FE2B5D
:10086000880F911D9695879597F908950024A7FD07
:1008700000942A0F301D401D501D601D701D801DED
:10088000901D08952A153B054C055D056E057F05F5
:0A089000800791070895F894FFCF48
:00000001FF
