S00B0000544D552E7372656323
S11300000C9443000C9460000C9460000C94600009
S11300100C9460000C9460000C9460000C946000DC
S11300200C9460000C9460000C9460000C94DA0250
S11300300C9460000C9460000C9460000C946000BC
S11300400C9460000C9460000C9460000C946000AC
S11300500C9460001C012001AF012401AF012801B0
S11300602C013001340150015501B3015A01B3018F
S11300705F01640169016E018F01930197019B0186
S11300809F01A301A70111241FBECFE5D8E0DEBF65
S1130090CDBF10E0A0E6B0E0E8E1F6E002C00590D4
S11300A00D92A236B107D9F722E0A2E6B0E001C072
S11300B01D92AF3CB207E1F70E9473000C940A034F
S11300C00C940000809162008F5F809362008FEF38
S11300D08ABB8BB380958BBB08958FEF87BB88B3A6
S11300E0809588BB08958FB780688FBF0E94CB012D
S11300F001E02AE030E040E050E062E670E081E0B8
S11301000E94E80124E130E040E050E06DE670E058
S113011082E00E94E8010E9486028091620084BD10
S113012080916200883CB9F782E00E947002F3CFAC
S1130130FC01892B09F44EC093819093690081815D
S1130140813029F4993009F44FC086E609C0823021
S113015021F4983021F086E603C080E001C080E0FD
S113016090819130A9F018F0923019F135C091E0E6
S1130170909368009281992319F0913029F02EC050
S113018099B79E7F99BF089599B7916099BF0895D3
S113019091E0909367009281992319F0913029F0AE
S11301A01FC099B79B7F99BF089599B7946099BF71
S11301B0089591E0909366009281992319F091300B
S11301C029F010C099B79F7B99BF089599B790649F
S11301D099BF089585E6089586E6089586E608950C
S11301E086E6089586E6089580E0BACF813009F462
S11301F03FC020F0823009F476C0ADC08091680021
S1130200882309F4AAC081E0809365006F3F7105DB
S113021019F010F086E601C080E062BFE091690049
S11302204E2F50E0FA013197E930F10508F097C0FC
S1130230E65DFF4F0C94040393B7916093BF089558
S113024093B7926093BF089593B7936093BF089553
S113025093B7946093BF089593B7956093BF08953F
S113026093B7966093BF089593B7976093BF08952B
S113027080916700882309F474C081E0809364004E
S11302807DBD6CBDE09169008E2F90E0FC0131973B
S1130290E930F10508F067C0ED5CFF4F0C940403EE
S11302A08EB581608EBD80E008958EB582608EBD6E
S11302B080E008958EB583608EBD80E008958EB58C
S11302C084608EBD80E008958EB585608EBD80E02B
S11302D008958EB586608EBD80E008958EB58760E2
S11302E08EBD80E00895809166008823F1F181E05D
S11302F0809363006F3F710519F010F086E601C02A
S113030080E064BDE09169004E2F50E0FA0131971E
S1130310E730F10560F5E45CFF4F0C94040395B5F8
S1130320916095BD089595B5926095BD089595B574
S1130330936095BD089595B5946095BD089595B560
S1130340956095BD089595B5966095BD089595B54C
S1130350976095BD089586E6089587E6089586E634
S1130360089587E6089586E6089587E6089586E663
S11303700895813039F018F0823041F00AC062BF2C
S113038080E008957DBD6CBD80E0089564BD80E08B
S1130390089586E60895CF938091C802982F9D7F93
S11303A091F490916F00911110C0E9ECF2E0808318
S11303B01182C1E0C28384E08383CF010E9498004C
S11303C0C0936F0003C08AEC01C08CECCF910895F8
S11303D08F929F92AF92BF92EF92FF920F93CF931F
S11303E090916F00992309F46DC06115710509F4AA
S11303F06BC049015A017B01C82F8091600088239A
S113040049F065E070E08091C9020E94F600109204
S1130410600001C080E040916A0050916B006091DF
S11304206C0070916D00423351056105710508F04F
S11304304DC09A01220F331FF901E40FF51FEE0F8F
S1130440FF1FEE0FFF1FE059FF4FC083F901E40FB8
S1130450F51FEE0FFF1FEE0FFF1FE059FF4F8282C3
S11304609382A482B582F901E40FF51FEE0FFF1FFA
S1130470EE0FFF1FE059FF4FF386E286F901E40F08
S1130480F51FEE0FFF1FEE0FFF1FE059FF4F1682FF
S1130490178210861186F901E40FF51FEE0FFF1F76
S11304A0EE0FFF1FE059FF4F01834F5F5F4F6F4F08
S11304B07F4F40936A0050936B0060936C0070937D
S11304C06D0005C08BEC03C089EC01C08FECCF91AB
S11304D00F91FF90EF90BF90AF909F908F900895F1
S11304E0E0E7F0E028EC32E040E051E0908198133E
S11304F003C013861286452F3C96E217F307B1F723
S1130500411102C08AEC089580E00895EF92FF92B1
S11305100F931F93CF93DF9380916F00882309F487
S11305203FC080916E008823E9F110926E00C1E70C
S1130530D0E00F2EF9ECEF2EF2E0FF2EF02D8D819E
S11305409E81AF81B8850196A11DB11D8D839E83C7
S1130550AF83B887E985FA853097E1F049815A81FC
S11305606B817C8184179507A607B70799F4888166
S1130570813031F409951D821E821F8218860AC0BB
S1130580823041F409951D821E821F8218861882CA
S11305901A8619862C96CE15DF0589F680E003C0ED
S11305A08BEC01C080E0DF91CF911F910F91FF9000
S11305B0EF9008951F920F920FB60F9211242F936C
S11305C03F934F935F936F937F938F939F93AF93D7
S11305D0BF93EF93FF9381E080936E0065E070E03A
S11305E080E00E94B901FF91EF91BF91AF919F917B
S11305F08F917F916F915F914F913F912F910F90C8
S11306000FBE0F901F901895EE0FFF1F0590F491E9
S10B0610E02D0994F894FFCFDA
S10506180100DB
S9030000FC
