:100000000C942A000C9447000C9447000C94470071
:100010000C9447000C9447000C9447000C94470044
:100020000C9447000C9447000C9447000C94470034
:100030000C9476020C940F030C943B030C9467030E
:100040000C9447000C9447000C9447000C94470014
:100050000C94470011241FBECFE5D8E0DEBFCDBF12
:1000600010E0A0E6B0E0E0E3F7E002C005900D92FA
:10007000A636B107D9F720E0A6E6B0E001C01D9290
:10008000AF39B207E1F70E94CA010C9496030C94B1
:10009000000081E080936100089581E080936E000C
:1000A000089580916200882321F0813009F440C0D6
:1000B0006AC080916300823019F08330E9F065C036
:1000C000E7E8F0E01082118280E4828313821482D8
:1000D00088E0858316821782108683E081871386E5
:1000E000128689E490E09587848717861686CF016B
:1000F0000E94A20281E00895E7E8F0E0108280E823
:1001000081831282138280E1848315821682178292
:10011000108683E0818713861286158614868DE407
:1001200090E097878687CF010E94A20281E0089520
:1001300080916300823019F0833099F028C0E7E99C
:10014000F0E081E0808381831282138284831582B0
:1001500089E490E097838683CF010E94020281E0C8
:100160000895E7E9F0E0108281E081831282138232
:10017000848315828DE490E097838683CF010E946B
:10018000020281E0089580E0089580E0089580E013
:100190000895CF93DF93C0916C00D0916D00809152
:1001A0006200882321F0813009F46BC0DCC08091AB
:1001B0006300823009F065C080916100882309F4F2
:1001C00067C01092610080916000833009F452C0D2
:1001D0008F3F21F0823009F054C01FC08091690028
:1001E000813059F018F0823079F04BC081E30E94E1
:1001F000D50281E08093690044C08D2F0E94D50212
:1002000082E0809369003DC08C2F0E94D50210923D
:10021000690082E08093600034C080916700909113
:1002200068008C179D0710F520916A0030916B00D3
:10023000F901E80FF91F80818823C1F00E94D502DF
:100240008091670090916800E0916A00F0916B00E6
:10025000E80FF91F309166002081230F209366007C
:10026000019690936800809367000BC083E08093B1
:1002700060000EC0809166000E94D5028FEF8093CF
:10028000600080916300823019F0109260006BC0B2
:1002900080916100882309F466C01092610080910A
:1002A0006000823029F1833009F456C0813009F0B2
:1002B0005AC080916900813059F018F0823079F08D
:1002C00052C081E30E944F0281E0809369004BC0DD
:1002D0008D2F0E944F0282E08093690044C08C2FD2
:1002E0000E944F021092690082E0809360003BC040
:1002F000809167009091680020916C0030916D00B2
:100300008217930710F520916A0030916B00F90174
:10031000E80FF91F80818823C1F00E944F0280916D
:10032000670090916800E0916A00F0916B00E80F1F
:10033000F91F309166002081230F209366000196FB
:1003400090936800809367000EC083E08093600004
:1003500081E08093610007C0809166000E944F0297
:100360008FEF8093600080916000DF91CF910895BE
:100370009C01909160009F3F59F481E08093600060
:1003800030936B0020936A0070936D0060936C0053
:1003900081E00895CF93DF93CDB7DEB761970FB6B5
:1003A000F894DEBF0FBECDBF198280E1FE01329608
:1003B000DF01982F1D929A95E9F78E8388E08F834D
:1003C00083E08B879FB790689FBFCF010E94A202F6
:1003D0000E9451006AE070E08FE690E00E94B80150
:1003E00010E01A3060F4CE0101960E94FD02E12F68
:1003F000F0E0E159FF4F898180831F5FF2CF0E94B7
:10040000C900EFCFFC01892BE9F18081882341F0FD
:10041000813051F487B3806B87BB6C9A81E005C053
:10042000BE9A6C9881E001C080E09181992321F00F
:10043000913021F46F9A03C06F9801C080E09281DF
:10044000992321F0913021F46D9A03C06D9801C079
:1004500080E09581992319F0913019F004C07098CB
:1004600003C0709A01C080E02381922F9B7F11F01E
:10047000983051F49481943048F43DB1922B932BF1
:100480009DB905C081E003C080E001C080E0268105
:10049000378130937C0020937B006E9A0895909171
:1004A0006400992379F0109264006F9B07C09091CB
:1004B00079009F5F909379008FB916C08FB9779BB1
:1004C000FECF12C06F9B0DC090917A00992361F00E
:1004D00010927A00909179009F5F909379008FB984
:1004E00003C08FB9779BFECF81E008951F920F92D2
:1004F0000FB60F9211242F933F934F935F936F93F7
:100500007F938F939F93AF93BF93EF93FF9381E07C
:1005100080937A00E0917B00F0917C00309709F0A5
:100520000995FF91EF91BF91AF919F918F917F912D
:100530006F915F914F913F912F910F900FBE0F9050
:100540001F901895FC019BB18081892B8BB99181FB
:100550008281892B9381892B9481892B9581892B89
:100560008AB990B58681892B80689781892B91857E
:10057000892B80BDA1E8B0E08285938511969C937C
:100580008E938485958513969C938E93129786857A
:10059000978515969C938E93149787E689B910BC1E
:1005A00081E0EF2B09F480E0089590916500992394
:1005B00061F010926500569B04C0109280008CB9C7
:1005C00017C05D9BFECF8CB913C0569B0EC092E046
:1005D00090937D0090917F00992351F093E0909348
:1005E0007D008CB910927F0003C05D9BFECF8CB95B
:1005F00080917D0082BF81E00895009771F0579B44
:1006000005C02CB1FC01208381E008955F9BFECFE3
:100610002CB1FC01208381E0089580E008951F92B1
:100620000F920FB60F9211242F933F934F935F9326
:100630006F937F938F939F93AF93BF93EF93FF93AA
:1006400081E080937E00E0918500F09186003097F4
:1006500009F00995FF91EF91BF91AF919F918F9113
:100660007F916F915F914F913F912F910F900FBEAE
:100670000F901F9018951F920F920FB60F92112492
:100680002F933F934F935F936F937F938F939F939A
:10069000AF93BF93EF93FF9381E080938000E0914D
:1006A0008100F0918200309709F00995FF91EF9158
:1006B000BF91AF919F918F917F916F915F914F917A
:1006C0003F912F910F900FBE0F901F9018951F9282
:1006D0000F920FB60F9211242F933F934F935F9376
:1006E0006F937F938F939F93AF93BF93EF93FF93FA
:1006F00081E080937F008FEF8ABB8BBBE09183000A
:10070000F0918400309709F00995FF91EF91BF9126
:10071000AF919F918F917F916F915F914F913F9199
:100720002F910F900FBE0F901F901895F894FFCF48
:06073000FF0101020101BE
:00000001FF
