S02100005374617469635F64657369676E5F6361725F636F6E74726F6C2E73726563CD
S11300000C9432000C944F000C944F000C947D021D
S11300100C944F000C944F000C944F000C944F0020
S11300200C944F000C944F000C944F000C944F0010
S11300300C944F000C944F000C944F000C944F0000
S11300400C944F000C944F000C944F000C944F00F0
S11300500C944F0017051C0523052A0531053805A6
S11300603F05460511241FBECFE5D8E0DEBFCDBF56
S113007010E0A0E6B0E0ECEDFBE002C005900D92CC
S1130080A236B107D9F720E0A2E6B0E001C01D9284
S1130090AB36B207E1F70E9422030C94EC050C94F2
S11300A00000CF930E94BE02C82F0E9489008C2BAF
S11300B0CF9108951F93CF93DF9300D0CDB7DEB7D0
S11300C01A8219820E94E202182FCE0101960E9420
S11300D0F702182B89819A818931910530F463E202
S11300E082E00E949400812B0EC049970A9730F455
S11300F063E283E00E949400812B05C063E281E007
S11301000E949400812B0F900F90DF91CF911F914B
S11301100895CF9381E00E941301C82F82E00E94CA
S113012013018C2BCF910895CF93DF93D62F823078
S113013011F130F4882309F45DC0813039F06FC0C7
S1130140833009F442C0843059F169C062E081E02F
S11301500E947B01C82F62E082E00E947B01C82BD1
S11301606D2F81E00E94E201C82B6D2F82E00E9476
S1130170E2018C2B55C061E081E00E947B01C82F15
S113018061E082E00E947B01C82B6D2F81E00E9418
S1130190E201C82B6D2F82E00E94E2018C2B40C04B
S11301A061E081E00E947B01C82F62E082E00E944E
S11301B07B01C82B6D2F81E00E94E201C82B6D2FBB
S11301C082E00E94E2018C2B2BC062E081E00E945D
S11301D07B01C82F61E082E00E947B01C82B6D2F58
S11301E081E00E94E201C82B6D2F82E00E94E201AF
S11301F08C2B16C060E081E00E947B01C82F60E078
S113020082E00E947B01C82B60E081E00E94E20151
S1130210C82B60E082E00E94E2018C2B01C080E0E8
S1130220DF91CF910895FF920F931F93CF93DF93A4
S113023000D000D01F92CDB7DEB796E09D83813009
S113024019F0823021F146C081E08C830F2EF3E057
S1130250FF2EF02DF98280E18A830FEF0B83CE010C
S113026001960E942703182FF98288E08A830B8362
S1130270CE0101960E942703182BF98284E08A8319
S11302800B83CE0101960E942703182B24C082E021
S11302908C830F2EF3E0FF2EF02DF98280E28A8307
S11302A00FEF0B83CE0101960E942703182FF982CA
S11302B080E88A830B83CE0101960E942703182BC2
S11302C0F98280E48A830B83CE0101960E9427037E
S11302D0182B01C011E0CE0104960E94C403812BA7
S11302E00F900F900F900F900F90DF91CF911F916F
S11302F00F91FF900895CF93813019F0823071F1FE
S11303005AC0613021F0E8F0623071F056C04FEF0E
S113031068E083E00E947E03C82F40E064E083E04D
S11303200E947E038C2B4CC040E068E083E00E9476
S11303307E03C82F4FEF64E083E00E947E038C2B82
S11303403FC040E068E083E00E947E03C82F40E0A5
S113035064E083E00E947E038C2B32C0613021F084
S1130360E8F0623071F02BC04FEF60E883E00E9448
S11303707E03C82F40E060E483E00E947E038C2B60
S11303801FC040E060E883E00E947E03C82F4FEF67
S113039060E483E00E947E038C2B12C040E060E89E
S11303A083E00E947E03C82F40E060E483E00E9463
S11303B07E038C2B05C081E003C081E001C081E095
S11303C0CF910895CF93DF93D62F813019F08230E7
S11303D061F016C081E00E944104C82F44E66D2FED
S11303E081E00E9406048C2B0CC082E00E94410430
S11303F0C82F44E66D2F82E00E9406048C2B01C0B6
S113040081E0DF91CF9108959BB79F7D9BBF8823A7
S113041031F0813039F484B7806484BF03C084B779
S11304208F7B84BF8AB78F7D8ABF8BB780628BBF77
S113043080E008951F93CF93DF93CDB7DEB727975E
S11304400FB6F894DEBF0FBECDBF81E0898384E090
S11304508A831B82CE0101960E942703182F82E013
S11304608C831D8287E08F831E82CE0104960E94B6
S11304704504182B81E00E9404029BB790629BBF45
S11304809FB790689FBF812B27960FB6F894DEBF65
S11304900FBECDBFDF91CF911F9108950F931F938E
S11304A0CF93DF9300D0CDB7DEB78A011A821982C9
S11304B0909162009330E1F794E090936200BE0162
S11304C06F5F7F4F0E94930549815A81002456959E
S11304D047950794569547950794542F402D60E00F
S11304E070E0F80140835183628373830F900F900F
S11304F0DF91CF911F910F9108951F920F920FB624
S11305000F9211242F933F934F935F936F937F9395
S11305108F939F93AF93BF93EF93FF93809160006A
S1130520813061F46FEF70E082E00E94570580E053
S11305300E94040282E0809360000FC080916000FA
S1130540823059F40E947C0581E00E94040281E01B
S11305508093600083E080936200FF91EF91BF91EC
S1130560AF919F918F917F916F915F914F913F9147
S11305702F910F900FBE0F901F9018951F93CF933C
S1130580DF9300D000D01F92CDB7DEB7198281E08F
S11305908A838FEF8B83CE0101960E942703182F45
S11305A082E08C8387E08D83CE0104960E941A0238
S11305B0812B0F900F900F900F900F90DF91CF91A0
S11305C01F910895CF934FEF61E080E00E947E0376
S11305D0C82F8FE99FE00197F1F700C0000040E0C9
S11305E061E080E00E947E038C2BCF9108950F93ED
S11305F01F93CF93DF9300D000D0CDB7DEB78C012B
S113060019821A821B821C82AE014F5F5F4F61E028
S113061082E00E944E0269817A818B819C812AE367
S113062030E040E050E00E94B505F80131832083BA
S113063080E00F900F900F900F90DF91CF911F915A
S11306400F9108950E9451000E945A00FDCFFC01B1
S1130650892B09F44BC082818F3F09F58081813059
S113066061F028F0823079F0833099F041C09AB378
S11306708181892B8ABB80E0089597B38181892B7E
S113068087BB80E0089594B38181892B84BB80E08B
S1130690089591B38181892B81BB80E008958111F4
S11306A029C08081813069F028F0823089F083305C
S11306B0B1F022C09AB38181809589238ABB80E0FE
S11306C0089597B381818095892387BB80E008953D
S11306D094B381818095892384BB80E0089591B38C
S11306E081818095892381BB80E0089581E008950C
S11306F081E0089581E0089581E008954F3FE1F499
S1130700813059F028F0823069F0833081F036C0AE
S11307108BB3682B6BBB80E0089588B3682B68BBF0
S113072080E0089585B3682B65BB80E0089582B3AB
S1130730682B62BB80E00895411122C0813061F0D2
S113074028F0823079F0833099F01CC08BB3609527
S113075068236BBB80E0089588B36095682368BB09
S113076080E0089585B36095682365BB80E00895B3
S113077082B36095682362BB80E0089581E00895A8
S113078081E0089581E008950F931F93CF93DF9341
S113079000D01F92CDB7DEB723E0298320E32A835C
S11307A02FEF2B83009749F18C0182E88FBD80E104
S11307B08EBDCE0101960E942703F801808181300D
S11307C019F0823049F010C08FB582688FBD8EB5A4
S11307D080618EBD80E009C08FB582628FBD8EB509
S11307E080618EBD80E001C081E0F801218130E0AC
S11307F0309364002093630001C081E00F900F9058
S11308000F90DF91CF911F910F910895443699F580
S113081020916300309164002630310571F59EB556
S113082095609EBD2EE430E037BD26BD813019F0C1
S1130830823089F024C0262F30E0AEE4B0E00E947C
S1130840DD0524E630E040E050E00E94B5053BBD04
S11308502ABD80E00895262F30E0AEE4B0E00E9487
S1130860DD0524E630E040E050E00E94B50539BDE6
S113087028BD80E0089581E0089581E0089581E035
S113088008958EB58EBD80E00895FC01892B09F48E
S113089004C18081813009F451C020F0823009F410
S11308A09EC0FDC012BE13BE1CBE8281882319F0F7
S11308B0813029F009C089B789BF80E006C089B7B3
S11308C0816089BF80E001C081E093819230D1F0E2
S11308D028F4992359F0913071F0E3C0963001F176
S11308E0973029F1943009F0DCC013C010926A00EB
S11308F010926900089521E030E030936A0020935B
S11309006900089522E030E030936A002093690082
S1130910089523E030E030936A002093690008953D
S113092024E030E030936A0020936900089525E0C4
S113093030E030936A002093690008951FBC1EBC08
S11309401CBC1DBC1ABC1BBC18BC19BC82818823EE
S113095019F0813029F009C089B789BF80E006C049
S113096089B7846089BF80E001C081E093819230BF
S1130970D1F028F4992359F0913071F094C0963055
S113098001F1973029F1943009F08DC013C0109211
S1130990680010926700089521E030E03093680009
S11309A020936700089522E030E03093680020939C
S11309B06700089523E030E03093680020936700D7
S11309C0089524E030E03093680020936700089590
S11309D025E030E03093680020936700089514BC4C
S11309E015BC13BC82B5877F82BD89B78F7389BF5D
S11309F088B7846088BF8281882319F0813029F008
S1130A0009C089B789BF80E006C089B7806489BFFF
S1130A1080E001C081E0E3814E2F50E04830510571
S1130A2008F043C0FA01E65DFF4F0C94D70510921D
S1130A30660010926500089521E030E0309366006E
S1130A4020936500089522E030E0309366002093FF
S1130A506500089523E030E030936600209365003C
S1130A60089524E030E030936600209365000895F3
S1130A7025E030E03093660020936500089526E079
S1130A8030E03093660020936500089527E030E05D
S1130A903093660020936500089581E0089581E015
S1130AA0089581E0089581E0089581E008958130FA
S1130AB069F018F08230A9F01DC0609562BF93B749
S1130AC080916900892B83BF80E008959EB5809151
S1130AD06700892B8EBD609570957DBD6CBD80E0EF
S1130AE00895609564BD95B580916500892B85BD99
S1130AF081E0089581E00895813049F018F0823052
S1130B0059F00FC083B7887F83BF80E008958EB506
S1130B10887F8EBD80E0089585B5887F85BD80E09F
S1130B20089581E0089561157105D9F0813059F077
S1130B3018F0823079F017C082B790E0FB019183FE
S1130B40808380E008958CB59DB5FB0191838083FB
S1130B5080E0089584B590E0FB019183808380E078
S1130B60089581E0089581E00895A1E21A2EAA1B58
S1130B70BB1BFD010DC0AA1FBB1FEE1FFF1FA21749
S1130B80B307E407F50720F0A21BB30BE40BF50B46
S1130B90661F771F881F991F1A9469F760957095CF
S1130BA0809590959B01AC01BD01CF010895EE0F96
S1130BB0FF1F0590F491E02D0994A29FB001B39F0B
S1130BC0C001A39F700D811D1124911DB29F700D52
S10F0BD0811D1124911D0895F894FFCF9D
S1050BDC010012
S9030000FC
