:100000000C942A000C9447000C9447000C94470071
:100010000C9447000C9447000C9447000C94470044
:100020000C9447000C9447000C9447000C94470034
:100030000C94F8010C947F020C94AB020C94D70240
:100040000C9447000C9447000C9447000C94470014
:100050000C94470011241FBECFE5D8E0DEBFCDBF12
:1000600010E0A0E6B0E0E0E1F6E002C005900D92FD
:10007000A636B107D9F720E0A6E6B0E001C01D9290
:10008000AF39B207E1F70E946B010C9406030C94A0
:10009000000081E080936100089581E080936F000B
:1000A000089580916200882321F0813009F440C0D6
:1000B0006AC080916300823019F08330E9F065C036
:1000C000E7E8F0E01082118280E4828313821482D8
:1000D00088E0858316821782108683E081871386E5
:1000E000128689E490E09587848717861686CF016B
:1000F0000E94240281E00895E7E8F0E0108280E8A1
:1001000081831282138280E1848315821682178292
:10011000108683E0818713861286158614868DE407
:1001200090E097878687CF010E94240281E008959E
:1001300080916300823019F0833099F028C0E7E99C
:10014000F0E081E0808381831282138284831582B0
:1001500089E490E097838683CF010E949E0181E02D
:100160000895E7E9F0E0108281E081831282138232
:10017000848315828DE490E097838683CF010E946B
:100180009E0181E0089580E0089580E0089580E078
:100190000895CF93DF9300D0CDB7DEB719821A82CE
:1001A00080916200813009F081C0809163008330CA
:1001B00009F07CC080916F00882309F477C0109209
:1001C0006F00809160008530C1F1863009F465C010
:1001D000843009F06BC080916C00813061F018F0C0
:1001E0008230B1F063C08BE690E00E94EB0181E0C9
:1001F00080936C005BC0CE0101960E94EB01898167
:100200001092690080936A0082E080936C004EC077
:10021000CE0101960E94EB012981809169009091A5
:100220006A00820F911D90936A008093690010927A
:100230006C0085E08093600039C0809167009091E8
:1002400068002091690030916A0082179307F0F4EA
:1002500020916D0030916E00820F931F0E94EB0180
:100260008091670090916800E0916D00F0916E00C0
:10027000E80FF91F309166002081230F209366005C
:100280000196909368008093670010C086E0809389
:10029000600081E080936F0009C0CE0102960E9449
:1002A000EB018A818ABB8FEF8093600080916000B0
:1002B0000F900F90DF91CF9108959C019091600075
:1002C0009F3F39F484E08093600030936E00209368
:1002D0006D0081E00895CF93DF93CDB7DEB76097CF
:1002E0000FB6F894DEBF0FBECDBF8FB780688FBF4B
:1002F000CE01019620E1FC0111922A95E9F728E050
:100300002E8323E02A870E9424020E94510080E766
:1003100090E00E945D0111E000E003C00E94C9006E
:10032000182F1F3FD9F70A30E0F7E02FF0E0E0592F
:10033000FF4F80810E9457020F5FF3CFFC01892B92
:10034000E9F18081882341F0813051F487B3806DD9
:1003500087BB6C9A81E005C0BE9A6C9881E001C0B1
:1003600080E09181992321F0913021F46F9A03C0AC
:100370006F9801C080E09281992321F0913021F49F
:100380006D9A03C06D9801C080E09581992319F0A2
:10039000913019F004C0709803C0709A01C080E0D9
:1003A0002381922F9B7F11F0983051F494819430E7
:1003B00048F43DB1922B932B9DB905C081E003C059
:1003C00080E001C080E02681378130937C0020935B
:1003D0007B006E9A08956F9B04C02FB1FC012083AF
:1003E00005C0779BFECF2FB1FC01208381E00895EB
:1003F0001F920F920FB60F9211242F933F934F939A
:100400005F936F937F938F939F93AF93BF93EF937C
:10041000FF9381E080937A00E0917B00F0917C0073
:10042000309709F00995FF91EF91BF91AF919F919E
:100430008F917F916F915F914F913F912F910F908D
:100440000FBE0F901F901895FC019BB18081892BE6
:100450008BB991818281892B9381892B9481892BFE
:100460009581892B8AB990B58681892B806897817F
:10047000892B9185892B80BDA1E8B0E08285938589
:1004800011969C938E938485958513969C938E9359
:1004900012978685978515969C938E93149787E679
:1004A00089B910BC81E0EF2B09F480E008959091A8
:1004B0006400992361F010926400569B04C010926E
:1004C00080008CB917C05D9BFECF8CB913C0569BC2
:1004D0000EC092E090937D0090917F00992351F09F
:1004E00093E090937D008CB910927F0003C05D9BD8
:1004F000FECF8CB980917D0082BF81E008951F926C
:100500000F920FB60F9211242F933F934F935F9347
:100510006F937F938F939F93AF93BF93EF93FF93CB
:1005200081E080937E00E0918500F0918600309715
:1005300009F00995FF91EF91BF91AF919F918F9134
:100540007F916F915F914F913F912F910F900FBECF
:100550000F901F9018951F920F920FB60F921124B3
:100560002F933F934F935F936F937F938F939F93BB
:10057000AF93BF93EF93FF9381E080938000E0916E
:100580008100F0918200309709F00995FF91EF9179
:10059000BF91AF919F918F917F916F915F914F919B
:1005A0003F912F910F900FBE0F901F9018951F92A3
:1005B0000F920FB60F9211242F933F934F935F9397
:1005C0006F937F938F939F93AF93BF93EF93FF931B
:1005D00081E080937F008FEF8ABB8BBBE09183002B
:1005E000F0918400309709F00995FF91EF91BF9148
:1005F000AF919F918F917F916F915F914F913F91BB
:100600002F910F900FBE0F901F901895F894FFCF69
:06061000FF0101030100DF
:00000001FF
