:100000000C9443000C9460000C9460000C9460000D
:100010000C9460000C9460000C9460000C946000E0
:100020000C9460000C9460000C9460000C947902B5
:100030000C9460000C9460000C9460000C946000C0
:100040000C9460000C9460000C9460000C946000B0
:100050000C9460000C0110019F0114019F01180114
:100060001C012001240140014501A3014A01A30113
:100070004F01540159015E017F01830187018B010A
:100080008F019301970111241FBECFE5D8E0DEBF99
:10009000CDBF10E0A0E6B0E0E6E5F5E002C00590D7
:1000A0000D92A236B107D9F722E0A2E6B0E001C076
:1000B0001D92AC39B207E1F70E946E000C94A902C0
:1000C0000C9400008FEF8ABB8BB380958BBB089597
:1000D0008FEF87BB88B3809588BB08958FB7806802
:1000E0008FBF0E94BB0128EE33E040E050E062E6A3
:1000F00070E081E00E94D80120ED37E040E050E060
:1001000068E670E082E00E94D8010E943402FDCFD0
:10011000FC01892B09F44EC0938190936800818182
:10012000813029F4993009F44FC086E609C0823045
:1001300021F4983021F086E603C080E001C080E021
:1001400090819130A9F018F0923019F135C091E00A
:10015000909367009281992319F0913029F02EC075
:1001600099B79E7F99BF089599B7916099BF0895F7
:1001700091E0909366009281992319F0913029F0D3
:100180001FC099B79B7F99BF089599B7946099BF95
:10019000089591E0909365009281992319F0913030
:1001A00029F010C099B79F7B99BF089599B79064C3
:1001B00099BF089585E6089586E6089586E6089530
:1001C00086E6089586E6089580E0BACF813009F486
:1001D0003FC020F0823009F476C0ADC08091670046
:1001E000882309F4AAC081E0809364006F3F710501
:1001F00019F010F086E601C080E062BFE09168006F
:100200004E2F50E0FA013197E930F10508F097C020
:10021000E65DFF4F0C94A30293B7916093BF0895DE
:1002200093B7926093BF089593B7936093BF089577
:1002300093B7946093BF089593B7956093BF089563
:1002400093B7966093BF089593B7976093BF08954F
:1002500080916600882309F474C081E08093630074
:100260007DBD6CBDE09168008E2F90E0FC01319760
:10027000E930F10508F067C0ED5CFF4F0C94A30274
:100280008EB581608EBD80E008958EB582608EBD92
:1002900080E008958EB583608EBD80E008958EB5B0
:1002A00084608EBD80E008958EB585608EBD80E04F
:1002B00008958EB586608EBD80E008958EB5876006
:1002C0008EBD80E00895809165008823F1F181E082
:1002D000809362006F3F710519F010F086E601C04F
:1002E00080E064BDE09168004E2F50E0FA01319744
:1002F000E730F10560F5E45CFF4F0C94A30295B57F
:10030000916095BD089595B5926095BD089595B598
:10031000936095BD089595B5946095BD089595B584
:10032000956095BD089595B5966095BD089595B570
:10033000976095BD089586E6089587E6089586E658
:10034000089587E6089586E6089587E6089586E687
:100350000895813039F018F0823041F00AC062BF50
:1003600080E008957DBD6CBD80E0089564BD80E0AF
:10037000089586E60895CF9380919502982F9D7FEA
:1003800091F490916E00911110C0E6E9F2E0808343
:100390001182C1E0C28384E08383CF010E94880080
:1003A000C0936E0003C08AEC01C08CECCF9108951D
:1003B000CF92DF92EF92FF921F93CF93DF939091B2
:1003C0006E00992309F443C06115710509F441C019
:1003D00069017A01EB01182F80916000882349F0B0
:1003E00065E070E0809196020E94E6001092600045
:1003F00001C080E04091690050916A0060916B00FB
:1004000070916C00423351056105710520F59BE048
:10041000949FF001959FF00D1124E159FF4F108337
:10042000C182D282E382F482D287C187158216828A
:10043000178210864F5F5F4F6F4F7F4F4093690069
:1004400050936A0060936B0070936C0005C08BEC56
:1004500003C089EC01C08FECDF91CF911F91FF9019
:10046000EF90DF90CF900895EF92FF920F931F933C
:10047000CF93DF9380916E00882389F180916D0086
:10048000882379F110926D00C0E7D0E00F2EF6E9D5
:10049000EF2EF2E0FF2EF02D8C819D81AE81BF8189
:1004A0000196A11DB11D8C839D83AE83BF83E8851A
:1004B000F985309771F0488159816A817B81841771
:1004C0009507A607B70729F409951C821D821E828D
:1004D0001F822B96CE15DF05F9F680E003C08BEC6A
:1004E00001C080E0DF91CF911F910F91FF90EF90BD
:1004F00008951F920F920FB60F9211242F933F93DE
:100500004F935F936F937F938F939F93AF93BF931B
:10051000EF93FF9381E080936D0065E070E080E0F1
:100520000E94A901FF91EF91BF91AF919F918F918F
:100530007F916F915F914F913F912F910F900FBEDF
:100540000F901F901895EE0FFF1F0590F491E02D6E
:060550000994F894FFCFAE
:020556000100A2
:00000001FF
