:100000000C942A000C9447000C9447000C94470071
:100010000C9447000C9447000C9447000C94470044
:100020000C9447000C9447000C9447000C94470034
:100030000C945B020C9447000C9447000C9447000E
:100040000C9447000C9447000C9447000C94470014
:100050000C94470011241FBECFE5D8E0DEBFCDBF12
:1000600010E0A0E6B0E0E2E4FCE002C005900D92F2
:10007000AC3BB107D9F721E0ACEBB0E001C01D9279
:10008000A532B207E1F70E94FA000C941F060C9407
:1000900000008130A1F028F08230F9F0833059F16E
:1000A0000895442319F04F3F31F008958AB36095C5
:1000B00068236ABB08958AB3682B6ABB08954423FA
:1000C00019F04F3F31F0089587B36095682367BBFF
:1000D000089587B3682B67BB0895442319F04F3FF9
:1000E00031F0089584B36095682364BB089584B3A8
:1000F000682B64BB0895442319F04F3F31F00895F5
:1001000081B36095682361BB089581B3682B61BB9F
:100110000895813049F028F0823049F0833051F061
:100120000CC089B368230AC086B3682307C083B3B1
:10013000682304C080B3682301C060E081E06111DE
:1001400001C080E081950895813061F028F082300F
:1001500079F0833099F0089540E060E182E00E94F8
:100160004900089540E064E081E00E94490008955C
:1001700040E064E080E00E944900089540E068E0CB
:1001800080E00E9449000895CF93C82F68E270E094
:1001900080E090E00E940902C13061F028F0C23096
:1001A00079F0C33099F018C060E182E00E948900C4
:1001B000C82F13C064E081E00E948900C82F0DC0E1
:1001C00064E080E00E948900C82F07C068E080E0FA
:1001D0000E948900C82F01C0C0E068E270E080E0A2
:1001E00090E00E940902C11102C080E001C082E0DB
:1001F000CF910895CF93DF93CDB7DEB761970FB658
:10020000F894DEBF0FBECDBF80E8898380E28A8389
:100210001B821C821D821E8240E850E260E070E07A
:1002200080E090E00E941F0280E895E2A0E0B0E04C
:100230008E879F87A88BB98B86E0888788E18F831C
:1002400019861C861B861A861D86CE0107960E947B
:100250009402E12C00E020E045E060E080E00E94B4
:100260006A0280E00E94A40081E00E94A4000F2E98
:10027000FAE7EF2EF0E0FF2EF02D01EC10E0602EFB
:10028000712E0F2EF0E98F2EF0E09F2EF02D0F2E05
:10029000FEE9AF2EF0E0BF2EF02D0F2EFBEACF2EA1
:1002A000F0E0DF2EF02D81E690E00E94040380E074
:1002B0000E94C4008823D9F380E00E94C4008230E9
:1002C000D9F30E948A028AE00E9400038DE00E9416
:1002D00000038CE690E00E94040342C08091C000BD
:1002E0008130F1F41092C0000E9454028093BF004C
:1002F0001F928F93FF92EF921F930F930E943503EB
:100300008AE00E9400038DE00E940003862D972D55
:100310000E9404030F900F900F900F900F900F907A
:1003200088B7816088BF88B7816088BF8091BD0031
:100330008F5F8093BD0083E80E9488028091BD009A
:100340008D3071F49091BC008091BF00890F809333
:10035000BC001092BD008091BE008F5F8093BE00F4
:1003600081E00E94C400882309F4B8CF81E00E9494
:10037000C4008230D9F38091BF001F928F939F9267
:100380008F921F930F930E9435038AE00E9400030F
:100390008DE00E940003C8010E9404038091BE000A
:1003A0001F928F93BF92AF921F930F930E943503BA
:1003B0008AE00E9400038DE00E940003C8010E94B1
:1003C00004038091BC001F928F93DF92CF921F9302
:1003D0000F930E9435038AE00E9400038DE00E9483
:1003E0000003C8010E9404030E9490021092BE0004
:1003F0001092BC0080E00E9488028AE00E94000304
:100400008DE00E9400030FB6F894DEBF0FBECDBF93
:100410004ACFAB01BC01411551056105710559F485
:10042000089501968D3E28E09207D9F74150510971
:100430006109710919F080E090E0F3CF08951F93EE
:10044000CF93DF9300D000D000D0CDB7DEB7142F0C
:1004500049835A836B837C838D839E831DB81EB82A
:100460001FB88DB1842B80649A81892B9B81892B45
:100470009C81892B8DB940E060EB81E00E944900AE
:100480004FEF60E481E00E944900103819F48FB703
:1004900080688FBF26960FB6F894DEBF0FBECDBF23
:1004A000DF91CF911F9108956F9902C0779BFECF86
:1004B0008EB18FB108951F920F920FB60F92112433
:1004C0008F9381E08093C0008F910F900FBE0F90AB
:1004D0001F901895EF920F9313BE12BE1CBE99B7D2
:1004E0009E7F99BF99B79D7F99BF93B7692B862B44
:1004F00083BF22BF0CBF4093600089B78E2989BF9C
:10050000EE2019F08FB780688FBF0F91EF9008959C
:1005100082BF089593B780916000892B83BF0895AF
:1005200083B7887F83BF0895CF92DF92EF92FF92C7
:10053000CF93DF93EC019AB18881892B9E81892B1F
:100540008AB920B58B819D81892B80689981892BFF
:100550009A81892B9C81892B822B80BD8F819885E4
:10056000A985BA85880F991FAA1FBB1F880F991FDD
:10057000AA1FBB1F9C01AD01220F331F441F551F33
:10058000220F331F441F551F0F2EC12CF4E2DF2E04
:10059000F4EFEF2EF12CF02DC701B6010E941303EA
:1005A000215029B98F819885A985BA85880F991F0F
:1005B000AA1FBB1F880F991FAA1FBB1F9C01AD015B
:1005C000220F331F441F551F220F331F441F551F77
:1005D000C701B6010E941303DA01C9010197A109FD
:1005E000B109892F9A2FAB2FBB2780BD8FB78068A9
:1005F0008FBFDF91CF91FF90EF90DF90CF90089564
:100600005D9BFECF8CB90895CF93DF93EC01888179
:10061000882331F021960E94000389918111FBCF3C
:10062000DF91CF910895A1E21A2EAA1BBB1BFD01F9
:100630000DC0AA1FBB1FEE1FFF1FA217B307E407C1
:10064000F50720F0A21BB30BE40BF50B661F771F19
:10065000881F991F1A9469F76095709580959095F9
:100660009B01AC01BD01CF010895AEE0B0E0EBE32A
:10067000F3E00C94F6050D891E8986E08C831A83BD
:1006800009838FEF9FE79E838D83AE01475E5F4FA7
:100690006F89788DCE0101960E945703EF81F8850E
:1006A000E00FF11F10822E96E4E00C941206ABE0EE
:1006B000B0E0EDE5F3E00C94E8056C017B018A0104
:1006C000FC0117821682838181FFCCC1CE01019685
:1006D0003C01F6019381F70193FD859193FF819190
:1006E0007F01882309F4BAC1853239F493FD8591DD
:1006F00093FF81917F01853229F4B60190E00E9439
:100700004E05E7CF912C212C312CFFE1F315D8F0C9
:100710008B3279F038F4803279F08332A1F4232DD2
:1007200020611DC08D3261F0803369F4232D21607A
:1007300016C0832D8260382EE32DE4603E2E2AC041
:10074000F32DF8601DC037FC2DC020ED280F2A3096
:1007500040F08E32B9F436FC81C1232D2064322E54
:1007600019C036FE06C08AE0989E200D1124922EF4
:1007700011C0EAE02E9E200D1124222EF32DF062EE
:100780003F2E08C08C3621F4832D8068382E02C09D
:10079000883641F4F70193FD859193FF81917F01A4
:1007A0008111B3CF982F9F7D9554933028F40C5F1F
:1007B0001F4F9FE399830DC0833631F0833771F06B
:1007C000833509F059C021C0F801808189830E5F0B
:1007D0001F4F88248394912C530113C02801F2E009
:1007E0004F0E511CF801A080B18036FE03C0692D68
:1007F00070E002C06FEF7FEFC5010E9443054C011E
:100800008201F32DFF773F2E16C0280122E0420E11
:10081000511CF801A080B18036FE03C0692D70E044
:1008200002C06FEF7FEFC5010E9438054C01F32D28
:10083000F0683F2E820133FC1BC0822D90E08816A9
:100840009906B0F4B60180E290E00E944E052A9429
:10085000F4CFF50137FC859137FE81915F01B60138
:1008600090E00E944E0521102A9421E0821A9108FE
:100870008114910471F7E8C0843611F0893641F58E
:10088000F80137FE07C060817181828193810C5F1E
:100890001F4F08C060817181072E000C880B990BD7
:1008A0000E5F1F4FF32DFF763F2E97FF09C09095E7
:1008B0008095709561957F4F8F4F9F4FF0683F2EC9
:1008C0002AE030E0A3010E948A05882E861845C0E0
:1008D000853731F4232D2F7EB22E2AE030E025C05B
:1008E000932D997FB92E8F36C1F018F4883579F0A1
:1008F000B5C0803719F0883721F0B0C0E92FE0612A
:10090000BE2EB4FE0DC0FB2DF460BF2E09C034FE18
:100910000AC0292F2660B22E06C028E030E005C0AC
:1009200020E130E002C020E132E0F801B7FE07C06C
:1009300060817181828193810C5F1F4F06C060814D
:10094000718180E090E00E5F1F4FA3010E948A0535
:10095000882E8618FB2DFF773F2E36FE0DC0232DE7
:100960002E7FA22E891458F434FE0BC032FC09C02D
:10097000832D8E7EA82E05C0B82CA32C03C0B82CC6
:1009800001C0B92CA4FE0FC0FE01E80DF11D80814D
:10099000803321F49A2D997EA92E09C0A2FE06C0AB
:1009A000B394B39404C08A2D867809F0B394A3FC61
:1009B00011C0A0FE06C0B21488F4280C922C9B181B
:1009C0000EC0B21460F4B60180E290E00E944E05C1
:1009D000B394F7CFB21418F42B1802C0982C212C22
:1009E000A4FE10C0B60180E390E00E944E05A2FE76
:1009F00017C0A1FC03C088E790E002C088E590E042
:100A0000B6010CC08A2D867859F0A1FE02C08BE297
:100A100001C080E2A7FC8DE2B60190E00E944E0585
:100A2000891438F4B60180E390E00E944E059A9450
:100A3000F7CF8A94F301E80DF11D8081B60190E0B3
:100A40000E944E058110F5CF222009F442CEB60156
:100A500080E290E00E944E052A94F6CFF60186814E
:100A6000978102C08FEF9FEF2B96E2E10C94040672
:100A7000FC010590615070400110D8F78095909569
:100A80008E0F9F1F0895FC0161507040019001106E
:100A9000D8F7809590958E0F9F1F08950F931F9301
:100AA000CF93DF93FB01238121FD03C08FEF9FEFE5
:100AB0002CC022FF16C04681578124813581421700
:100AC000530744F4A081B1819D012F5F3F4F3183D3
:100AD00020838C93268137812F5F3F4F3783268376
:100AE00014C08B01EC01FB010084F185E02D099518
:100AF000892BE1F6D80116968D919C911797019656
:100B000017969C938E931697CE01DF91CF911F91EC
:100B10000F910895FA01AA27283051F1203181F16F
:100B2000E8946F936E7F6E5F7F4F8F4F9F4FAF4FF5
:100B3000B1E03ED0B4E03CD0670F781F891F9A1F08
:100B4000A11D680F791F8A1F911DA11D6A0F711DBC
:100B5000811D911DA11D20D009F468943F912AE0C8
:100B6000269F11243019305D3193DEF6CF010895B0
:100B7000462F4770405D4193B3E00FD0C9F7F6CFE1
:100B8000462F4F70405D4A3318F0495D31FD4052A9
:100B9000419302D0A9F7EACFB4E0A695979587953F
:100BA00077956795BA95C9F700976105710508951E
:100BB0009B01AC010A2E06945795479537952795CA
:100BC000BA95C9F7620F731F841F951FA01D089562
:100BD0002F923F924F925F926F927F928F929F924D
:100BE000AF92BF92CF92DF92EF92FF920F931F933B
:100BF000CF93DF93CDB7DEB7CA1BDB0B0FB6F894EC
:100C0000DEBF0FBECDBF09942A88398848885F842B
:100C10006E847D848C849B84AA84B984C884DF809C
:100C2000EE80FD800C811B81AA81B981CE0FD11D80
:100C30000FB6F894DEBF0FBECDBFED010895F89456
:020C4000FFCFE4
:100C4200F82077617474696E67203A0020737461CA
:100C52007274696E67202E2E2E00202072656365E5
:100C6200697665642073706565643A2020256400A6
:100C720020202073706565643A20202564002020BE
:100C82002054696D653A2020256400202020646983
:0C0C92007374616E63653A2020256400D5
:00000001FF
