:100000000C942A000C9434000C9434000C943400AA
:100010000C9434000C9434000C9434000C94340090
:100020000C9434000C9434000C9434000C94340080
:100030000C9434000C9434000C9434000C94340070
:100040000C9434000C9434000C9434000C94340060
:100050000C94340011241FBECFE5D8E0DEBFCDBF25
:100060000E9438010C943F020C9400004F3FC1F4F1
:10007000813051F028F0823059F0833069F00895D2
:100080008AB3682B6ABB089587B3682B67BB089552
:1000900084B3682B64BB089581B3682B61BB08955A
:1000A00041111BC0813059F028F0823069F0833053
:1000B00081F008958AB3609568236ABB089587B379
:1000C0006095682367BB089584B36095682364BB1B
:1000D000089581B36095682361BB08954F3FC1F4D3
:1000E000813051F028F0823059F0833069F0089562
:1000F0008BB3682B6BBB089588B3682B68BB0895DE
:1001000085B3682B65BB089582B3682B62BB0895E5
:1001100041111BC0813059F028F0823069F08330E2
:1001200081F008958BB3609568236BBB089588B305
:100130006095682368BB089585B36095682365BBA7
:10014000089582B36095682362BB0895813041F0C1
:1001500028F0823039F0833039F0089589B308955A
:1001600086B3089583B3089580B30895813061F014
:1001700028F0823079F0833099F008954FEF60E1F4
:1001800081E00E94360008954FEF60E281E00E9416
:10019000360008954FEF60E481E00E943600089534
:1001A0004FEF60E881E00E9436000895813061F0F1
:1001B00028F0823079F0833099F008954FEF60E1B4
:1001C00081E00E946E0008954FEF60E281E00E949E
:1001D0006E0008954FEF60E481E00E946E00089584
:1001E0004FEF60E881E00E946E000895813061F079
:1001F00028F0823079F0833099F0089540E060E192
:1002000081E00E946E00089540E060E281E00E947B
:100210006E00089540E060E481E00E946E00089561
:1002200040E060E881E00E946E00089580E00E9456
:10023000B60080E00E943A0180E00E945A018111DC
:10024000FBCF0E94D600C0E0D0E080E00E945A01BF
:100250002196C530D105C9F7811106C062E370E06F
:1002600080E090E00E94900180E00E94F600E4CFE0
:100270000E941601813061F028F0823079F08330DD
:1002800099F0089540E060E182E00E943600089510
:1002900040E064E081E00E943600089540E064E0C0
:1002A00080E00E943600089540E068E080E00E940F
:1002B00036000895813089F028F08230C9F083300B
:1002C00011F12CC060E182E00E94A600EFE4F3ECA3
:1002D0003197F1F700C00000089564E081E00E94CA
:1002E000A600EFE4F3EC3197F1F700C000000895A9
:1002F00064E080E00E94A600EFE4F3EC3197F1F7B0
:1003000000C00000089568E080E00E94A600EFE4CD
:10031000F3EC3197F1F700C00000089580E00895F4
:100320006F927F928F929F92AF92BF92CF92DF9205
:10033000EF92FF920F931F93CF93DF93CDB7DEB76A
:100340002A970FB6F894DEBF0FBECDBF9B01AC015C
:10035000ACE2B1E00E9404027B018C0120E030E0BD
:10036000A9016B83FC820D831E832F833887498705
:100370005A87262F3F2D402F512F60E070E080E0FC
:1003800090E0A0E00E94240251F1612C712C812C9C
:10039000912CB0E0F0E0E0E089819A8101969A83A7
:1003A0008983262D372D482D592D6B2F7A2F8F2F8E
:1003B0009E2FA1E00E940F02622E732E842E952E96
:1003C000B62FA72FF82FE92FAB80BC80CD80DE8021
:1003D000EF80F88409851A850E941B02E8F22A96AC
:1003E0000FB6F894DEBF0FBECDBFDF91CF911F9146
:1003F0000F91FF90EF90DF90CF90BF90AF909F90C4
:100400008F907F906F9008950E943002A59F900D6D
:10041000B49F900DA49F800D911D11240895002478
:10042000A7FD00942A0F301D401D501D601D701D3A
:10043000801D901D08952A153B054C055D056E0530
:100440007F058007910708950024A7FD00942A17CF
:10045000300540055005600570058005900508953C
:10046000A29FB001B39FC001A39F700D811D1124F5
:10047000911DB29F700D811D1124911D0895F89456
:02048000FFCFAC
:00000001FF
