:100000000C942A000C9447000C9447000C94470071
:100010000C940E030C94E4020C9447000C94BD0263
:100020000C9447000C9490020C9469020C943F02CB
:100030000C9430020C946A010C9447000C94470015
:100040000C9447000C9447000C9447000C94470014
:100050000C94470011241FBECFE5D8E0DEBFCDBF12
:1000600010E0A0E6B0E0E2E9F7E002C005900D92F2
:10007000A036B107D9F720E0A0E6B0E001C01D929C
:10008000A736B207E1F70E94E0000C94C7030C9476
:1000900000008130A1F028F08230F9F0833059F16E
:1000A0000895442319F04F3F31F008958AB36095C5
:1000B00068236ABB08958AB3682B6ABB08954423FA
:1000C00019F04F3F31F0089587B36095682367BBFF
:1000D000089587B3682B67BB0895442319F04F3FF9
:1000E00031F0089584B36095682364BB089584B3A8
:1000F000682B64BB0895442319F04F3F31F00895F5
:1001000081B36095682361BB089581B3682B61BB9F
:100110000895813099F028F08230E9F0833041F180
:100120000895442331F04F3F79F58BB3682B6BBBB7
:1001300008958BB3609568236BBB0895442331F019
:100140004F3F11F588B3682B68BB089588B360955D
:10015000682368BB0895442331F04F3FA9F485B369
:10016000682B65BB089585B36095682365BB0895CA
:10017000442331F04F3F41F482B3682B62BB0895B2
:1001800082B36095682362BB0895813049F028F0FE
:10019000823049F0833051F00CC089B368230AC023
:1001A00086B3682307C083B3682304C080B3682381
:1001B00001C060E081E0611101C080E08195089597
:1001C000CF93DF93CDB7DEB761970FB6F894DEBF5C
:1001D0000FBECDBF198280E28A831B821C821D82E2
:1001E0001E8240E050E260E070E080E090E00E941B
:1001F000ED0180E895E2A0E0B0E08E879F87A88BB4
:10020000B98B86E0888788E18F8319861C861B86D8
:100210001A8680E88D87CE0107960E94350380E01C
:100220000E94810181E00E9481012FEF80E792E02E
:10023000215080409040E1F700C0000080916000B4
:100240008130E1F78FE39FE10197F1F700C00000F3
:10025000809161000E94270280916100805D0E9470
:10026000A10380E00E94A1018230B9F480E00E94E5
:10027000A1018230D9F3809161008A3070F48091BD
:1002800061008F5F80936100809161000E9427026E
:1002900080916100805D0E94A10381E00E94A10124
:1002A0008230F9F681E00E94A1018230D9F3809179
:1002B00061008823B1F280916100815080936100D8
:1002C000809161000E94270280916100805D0E9400
:1002D000A103C7CF1F920F920FB60F9211248F93D5
:1002E0008CB18093610080916100805380936100A4
:1002F00081E0809360008F910F900FBE0F901F9050
:100300001895813061F028F0823079F0833099F0CF
:10031000089540E060E182E00E944900089540E0D5
:1003200064E081E00E944900089540E064E080E0DC
:100330000E944900089540E068E080E00E94490082
:100340000895CF93C82F68E270E080E090E00E94AB
:10035000D701C13061F028F0C23079F0C33099F094
:1003600018C060E182E00E94C500C82F13C064E09D
:1003700081E00E94C500C82F0DC064E080E00E94AB
:10038000C500C82F07C068E080E00E94C500C82FE4
:1003900001C0C0E068E270E080E090E00E94D70118
:1003A000C11102C080E001C082E0CF910895AB018D
:1003B000BC01411551056105710559F40895019677
:1003C0008D3E28E09207D9F7415051096109710922
:1003D00019F080E090E0F3CF0895CF93DF9300D041
:1003E00000D000D0CDB7DEB749835A836B837C83BE
:1003F0008D839E831DB81EB81FB84FEF60EB81E060
:100400000E94490040E060E481E00E9449004FEF13
:1004100060E181E00E948900C49A9DB18981892BA5
:1004200080659A81892B9B81892B9C81892B9D8159
:10043000892B8DB99EB18E81892B8EB926960FB6E8
:10044000F894DEBF0FBECDBFDF91CF910895C49861
:100450008FB99FB192BF84BD779BFECFC49A089598
:100460001F920F920FB60F9211248F9381E0809309
:1004700062008F910F900FBE0F901F9018951F92E2
:100480000F920FB60F9211242F933F934F935F93C8
:100490006F937F938F939F93AF93BF93EF93FF934C
:1004A0004FEF61E083E00E9489008091660082BF87
:1004B000FF91EF91BF91AF919F918F917F916F913C
:1004C0005F914F913F912F910F900FBE0F901F9012
:1004D00018951F920F920FB60F9211242F933F93EE
:1004E0004F935F936F937F938F939F93AF93BF933C
:1004F000EF93FF9340E061E083E00E948900FF9169
:10050000EF91BF91AF919F918F917F916F915F918B
:100510004F913F912F910F900FBE0F901F90189504
:100520001F920F920FB60F9211242F933F934F9368
:100530005F936F937F938F939F93AF93BF93EF934B
:10054000FF934FEF62E083E00E9489008091640096
:10055000909165009DBD8CBDFF91EF91BF91AF91D2
:100560009F918F917F916F915F914F913F912F91CB
:100570000F900FBE0F901F9018951F920F920FB6FD
:100580000F9211242F933F934F935F936F937F9319
:100590008F939F93AF93BF93EF93FF9340E062E0FD
:1005A00083E00E948900FF91EF91BF91AF919F91ED
:1005B0008F917F916F915F914F913F912F910F900C
:1005C0000FBE0F901F9018951F920F920FB60F92AB
:1005D00011242F933F934F935F936F937F938F9348
:1005E0009F93AF93BF93EF93FF934FEF64E083E04C
:1005F0000E9489008091630084BDFF91EF91BF91BB
:10060000AF919F918F917F916F915F914F913F91AA
:100610002F910F900FBE0F901F9018951F920F9261
:100620000FB60F9211242F933F934F935F936F93C5
:100630007F938F939F93AF93BF93EF93FF9340E08C
:1006400064E083E00E948900FF91EF91BF91AF9138
:100650009F918F917F916F915F914F913F912F91DA
:100660000F900FBE0F901F901895CF92DF92EF92D0
:10067000FF92CF93DF93EC019AB18881892B9E8101
:10068000892B8AB920B58B819D81892B80689981BE
:10069000892B9A81892B9C81892B822B80BD8F810C
:1006A0009885A985BA85880F991FAA1FBB1F880F37
:1006B000991FAA1FBB1F9C01AD01220F331F441FAE
:1006C000551F220F331F441F551F0F2EC12CF4E25C
:1006D000DF2EF4EFEF2EF12CF02DC701B6010E94B2
:1006E000A503215029B98F819885A985BA85880FDE
:1006F000991FAA1FBB1F880F991FAA1FBB1F9C0110
:10070000AD01220F331F441F551F220F331F441FFB
:10071000551FC701B6010E94A503DA01C90101975F
:10072000A109B109892F9A2FAB2FBB2780BD8FB7A5
:1007300080688FBFDF91CF91FF90EF90DF90CF90D7
:1007400008955D9BFECF8CB90895A1E21A2EAA1BD5
:10075000BB1BFD010DC0AA1FBB1FEE1FFF1FA21771
:10076000B307E407F50720F0A21BB30BE40BF50B6E
:10077000661F771F881F991F1A9469F760957095F7
:10078000809590959B01AC01BD01CF010895F8942F
:02079000FFCF99
:00000001FF
